:020000001628C0
:0E0006008312031329088A00280882000800CC
:1000140003208A110A128000840AA80A0319A90A73
:08002400F003031D0A28080087
:10002C00013083120313A0000230A1000430A2009F
:10003C000830A3001030A4002030A5004030A600EA
:10004C008030A70083168701880103178801890176
:10005C008312031387018801AA01AB0180302B06A0
:10006C00F00080307002031D3D28A8302A020318CE
:10007C008B28AC01AD0180302D06F0008030700271
:10008C00031D4A2819302C0203188728AE01AF0132
:10009C0080302F06F00080307002031D5728083086
:1000AC002E02031883282E08203E840000098800A5
:1000BC002E082A07F0002B080318013E2F07F10029
:1000CC009B30F00700300318013EF1077008A800C0
:1000DC007108A90003208A110A1287000330FC0062
:1000EC009730FD00FD0B7828FC0B782800000000F1
:1000FC008701AE0A0319AF0A4E28AC0A0319AD0AE0
:10010C004128AA0A0319AB0A34280630FB00133025
:10011C00FC00AD30FD00FD0B9128FC0B9128FB0B76
:0A012C0091280000000032289A28F4
:100136007E3442344234423442342434003400346F
:100146007E3440344034403440340034003400348B
:100156007E3412341234123412347E3400340034B5
:100166003C34423442344234423424340034003481
:100176007E3410342834443482340034003400345D
:100186007E341234123412340C3400340034003409
:10019600003442347E347E34423400340034003439
:1001A6007E3404340834103420347E340034003471
:1001B6007E3410342834443482340034003400341D
:1001C6000034003400340034003400340034003489
:1001D600003442347E347E344234003400340034F9
:1001E6007E3404340834103420347E340034003431
:1001F6000034003400340034003400340034003459
:10020600023404347834783404340234003400344C
:100216003C3442344234423442343C3400340034B8
:100226003E3440344034403440343E3400340034AC
:100236007E341234123432345C34003400340034E8
:100246000034003400340034003400340034003408
:100256007E3412341234123412347E3400340034B4
:100266007E341234123432345C34003400340034B8
:100276007E344A344A344A3442340034003400343A
:100286007E3412341234123412347E340034003484
:04400E00F22F000786
:00000001FF
